{
    "contractName": "EventEmitExample",
    "abi": [
        {
            "anonymous": false,
            "inputs": [
                {
                    "indexed": false,
                    "internalType": "address",
                    "name": "_from",
                    "type": "address"
                },
                {
                    "indexed": false,
                    "internalType": "string",
                    "name": "_str1",
                    "type": "string"
                },
                {
                    "indexed": false,
                    "internalType": "string",
                    "name": "_str2",
                    "type": "string"
                },
                {
                    "indexed": false,
                    "internalType": "uint256",
                    "name": "_int1",
                    "type": "uint256"
                }
            ],
            "name": "StringLog",
            "type": "event"
        },
        {
            "inputs": [
                {
                    "internalType": "string",
                    "name": "_str1",
                    "type": "string"
                },
                {
                    "internalType": "string",
                    "name": "_str2",
                    "type": "string"
                },
                {
                    "internalType": "uint256",
                    "name": "_int1",
                    "type": "uint256"
                }
            ],
            "name": "contractLog",
            "outputs": [
                {
                    "internalType": "bool",
                    "name": "",
                    "type": "bool"
                }
            ],
            "stateMutability": "nonpayable",
            "type": "function"
        }
    ],
    "bytecode": "608060405234801561001057600080fd5b50610274806100206000396000f3fe608060405234801561001057600080fd5b506004361061002b5760003560e01c806331fa05c214610030575b600080fd5b61004361003e366004610143565b610057565b604051901515815260200160405180910390f35b60007f8195cb6f2f6433b8159db80c461c3291b293a0cab2059db3ec796947ae3f36813385858560405161008e94939291906101f6565b60405180910390a15060019392505050565b634e487b7160e01b600052604160045260246000fd5b600082601f8301126100c757600080fd5b813567ffffffffffffffff808211156100e2576100e26100a0565b604051601f8301601f19908116603f0116810190828211818310171561010a5761010a6100a0565b8160405283815286602085880101111561012357600080fd5b836020870160208301376000602085830101528094505050505092915050565b60008060006060848603121561015857600080fd5b833567ffffffffffffffff8082111561017057600080fd5b61017c878388016100b6565b9450602086013591508082111561019257600080fd5b5061019f868287016100b6565b925050604084013590509250925092565b6000815180845260005b818110156101d6576020818501810151868301820152016101ba565b506000602082860101526020601f19601f83011685010191505092915050565b6001600160a01b038516815260806020820181905260009061021a908301866101b0565b828103604084015261022c81866101b0565b9150508260608301529594505050505056fea2646970667358221220099f62a11f7e7797d109c208e91d79fba48938a8756dbf6f529302a917d19d0964736f6c63430008110033",
    "sourcePath": "e:/NodeJS/blockchain/testEventEmitListen.sol",
    "compiler": {
        "name": "solc",
        "version": "0.8.17+commit.8df45f5f"
    },
    "functionHashes": {
        "contractLog(string,string,uint256)": "31fa05c2"
    },
    "gasEstimates": {
        "creation": {
            "codeDepositCost": "125600",
            "executionCost": "171",
            "totalCost": "125771"
        },
        "external": {
            "contractLog(string,string,uint256)": "infinite"
        }
    }
}