{
  "contractName": "EventEmitExample",
  "abi": [
    {
      "anonymous": false,
      "inputs": [
        {
          "indexed": false,
          "internalType": "address",
          "name": "_from",
          "type": "address"
        },
        {
          "indexed": false,
          "internalType": "string",
          "name": "_str1",
          "type": "string"
        },
        {
          "indexed": false,
          "internalType": "string",
          "name": "_str2",
          "type": "string"
        },
        {
          "indexed": false,
          "internalType": "uint256",
          "name": "_int1",
          "type": "uint256"
        }
      ],
      "name": "StringLog",
      "type": "event"
    },
    {
      "inputs": [
        {
          "internalType": "string",
          "name": "_str1",
          "type": "string"
        },
        {
          "internalType": "string",
          "name": "_str2",
          "type": "string"
        },
        {
          "internalType": "uint256",
          "name": "_int1",
          "type": "uint256"
        }
      ],
      "name": "contractLog",
      "outputs": [
        {
          "internalType": "bool",
          "name": "",
          "type": "bool"
        }
      ],
      "stateMutability": "nonpayable",
      "type": "function"
    }
  ],
  "bytecode": "0x608060405234801561001057600080fd5b50610453806100206000396000f3fe608060405234801561001057600080fd5b506004361061002b5760003560e01c806331fa05c214610030575b600080fd5b61004a6004803603810190610045919061023a565b610060565b60405161005791906102e0565b60405180910390f35b60007f8195cb6f2f6433b8159db80c461c3291b293a0cab2059db3ec796947ae3f36813385858560405161009794939291906103ca565b60405180910390a1600190509392505050565b6000604051905090565b600080fd5b600080fd5b600080fd5b600080fd5b6000601f19601f8301169050919050565b7f4e487b7100000000000000000000000000000000000000000000000000000000600052604160045260246000fd5b610111826100c8565b810181811067ffffffffffffffff821117156101305761012f6100d9565b5b80604052505050565b60006101436100aa565b905061014f8282610108565b919050565b600067ffffffffffffffff82111561016f5761016e6100d9565b5b610178826100c8565b9050602081019050919050565b82818337600083830152505050565b60006101a76101a284610154565b610139565b9050828152602081018484840111156101c3576101c26100c3565b5b6101ce848285610185565b509392505050565b600082601f8301126101eb576101ea6100be565b5b81356101fb848260208601610194565b91505092915050565b6000819050919050565b61021781610204565b811461022257600080fd5b50565b6000813590506102348161020e565b92915050565b600080600060608486031215610253576102526100b4565b5b600084013567ffffffffffffffff811115610271576102706100b9565b5b61027d868287016101d6565b935050602084013567ffffffffffffffff81111561029e5761029d6100b9565b5b6102aa868287016101d6565b92505060406102bb86828701610225565b9150509250925092565b60008115159050919050565b6102da816102c5565b82525050565b60006020820190506102f560008301846102d1565b92915050565b600073ffffffffffffffffffffffffffffffffffffffff82169050919050565b6000610326826102fb565b9050919050565b6103368161031b565b82525050565b600081519050919050565b600082825260208201905092915050565b60005b8381101561037657808201518184015260208101905061035b565b60008484015250505050565b600061038d8261033c565b6103978185610347565b93506103a7818560208601610358565b6103b0816100c8565b840191505092915050565b6103c481610204565b82525050565b60006080820190506103df600083018761032d565b81810360208301526103f18186610382565b905081810360408301526104058185610382565b905061041460608301846103bb565b9594505050505056fea264697066735822122089e2865c344aca66eaaf55ddde56ccc5d4f586c148e243f61e14a9bc9556eb0564736f6c63430008110033",
  "immutableReferences": {},
  "source": "// SPDX-License-Identifier: MIT\r\npragma solidity 0.8.17;\r\n\r\ncontract EventEmitExample {\r\n\r\n    event StringLog(address _from, string _str1, string _str2, uint _int1);\r\n\r\n    function contractLog(string memory _str1, string memory _str2, uint _int1) public returns (bool) {\r\n\r\n        emit StringLog(msg.sender, _str1, _str2, _int1);\r\n\r\n        return true;\r\n    }\r\n}",
  "sourcePath": "E:\\NodeJS\\blockchain\\contracts\\testEventEmitListen.sol",
  "compiler": {
    "name": "solc",
    "version": "0.8.17+commit.8df45f5f.Emscripten.clang"
  },
  "schemaVersion": "3.4.11",
  "updatedAt": "2022-12-19T04:35:17.861Z",
  "networkType": "ethereum",
  "devdoc": {
    "kind": "dev",
    "methods": {},
    "version": 1
  },
  "userdoc": {
    "kind": "user",
    "methods": {},
    "version": 1
  }
}