{
  "contractName": "PriceContract",
  "abi": [
    {
      "anonymous": false,
      "inputs": [
        {
          "indexed": false,
          "internalType": "address",
          "name": "_from",
          "type": "address"
        },
        {
          "indexed": false,
          "internalType": "string",
          "name": "_contractor1",
          "type": "string"
        },
        {
          "indexed": false,
          "internalType": "string",
          "name": "_contractor2",
          "type": "string"
        },
        {
          "indexed": false,
          "internalType": "string",
          "name": "_contractTitle",
          "type": "string"
        },
        {
          "indexed": false,
          "internalType": "string",
          "name": "_contractContent",
          "type": "string"
        },
        {
          "indexed": false,
          "internalType": "uint256",
          "name": "_contractPrice",
          "type": "uint256"
        }
      ],
      "name": "StringLog",
      "type": "event"
    },
    {
      "inputs": [
        {
          "internalType": "string",
          "name": "_contractor1",
          "type": "string"
        },
        {
          "internalType": "string",
          "name": "_contractor2",
          "type": "string"
        },
        {
          "internalType": "string",
          "name": "_contractTitle",
          "type": "string"
        },
        {
          "internalType": "string",
          "name": "_contractContent",
          "type": "string"
        },
        {
          "internalType": "uint256",
          "name": "_contractPrice",
          "type": "uint256"
        }
      ],
      "name": "contractLog",
      "outputs": [
        {
          "internalType": "bool",
          "name": "",
          "type": "bool"
        }
      ],
      "stateMutability": "nonpayable",
      "type": "function"
    }
  ],
  "bytecode": "0x608060405234801561001057600080fd5b506104e3806100206000396000f3fe608060405234801561001057600080fd5b506004361061002b5760003560e01c8063d660437d14610030575b600080fd5b61004a60048036038101906100459190610240565b610060565b6040516100579190610346565b60405180910390f35b60007f539a88ccec246c0f949863cd66afd586defa43583ae76b3466e3bb992abe765b33878787878760405161009b96959493929190610430565b60405180910390a16001905095945050505050565b6000604051905090565b600080fd5b600080fd5b600080fd5b600080fd5b6000601f19601f8301169050919050565b7f4e487b7100000000000000000000000000000000000000000000000000000000600052604160045260246000fd5b610117826100ce565b810181811067ffffffffffffffff82111715610136576101356100df565b5b80604052505050565b60006101496100b0565b9050610155828261010e565b919050565b600067ffffffffffffffff821115610175576101746100df565b5b61017e826100ce565b9050602081019050919050565b82818337600083830152505050565b60006101ad6101a88461015a565b61013f565b9050828152602081018484840111156101c9576101c86100c9565b5b6101d484828561018b565b509392505050565b600082601f8301126101f1576101f06100c4565b5b813561020184826020860161019a565b91505092915050565b6000819050919050565b61021d8161020a565b811461022857600080fd5b50565b60008135905061023a81610214565b92915050565b600080600080600060a0868803121561025c5761025b6100ba565b5b600086013567ffffffffffffffff81111561027a576102796100bf565b5b610286888289016101dc565b955050602086013567ffffffffffffffff8111156102a7576102a66100bf565b5b6102b3888289016101dc565b945050604086013567ffffffffffffffff8111156102d4576102d36100bf565b5b6102e0888289016101dc565b935050606086013567ffffffffffffffff811115610301576103006100bf565b5b61030d888289016101dc565b925050608061031e8882890161022b565b9150509295509295909350565b60008115159050919050565b6103408161032b565b82525050565b600060208201905061035b6000830184610337565b92915050565b600073ffffffffffffffffffffffffffffffffffffffff82169050919050565b600061038c82610361565b9050919050565b61039c81610381565b82525050565b600081519050919050565b600082825260208201905092915050565b60005b838110156103dc5780820151818401526020810190506103c1565b60008484015250505050565b60006103f3826103a2565b6103fd81856103ad565b935061040d8185602086016103be565b610416816100ce565b840191505092915050565b61042a8161020a565b82525050565b600060c0820190506104456000830189610393565b818103602083015261045781886103e8565b9050818103604083015261046b81876103e8565b9050818103606083015261047f81866103e8565b9050818103608083015261049381856103e8565b90506104a260a0830184610421565b97965050505050505056fea264697066735822122051f77b2e0a70a070cedd0030247637250003be8d8e7e983b928ee59bb794f05d64736f6c63430008110033",
  "immutableReferences": {},
  "source": "// SPDX-License-Identifier: MIT\r\npragma solidity 0.8.17;\r\n\r\ncontract PriceContract {\r\n\r\n    event StringLog(\r\n        address _from, \r\n        string _contractor1, \r\n        string _contractor2, \r\n        string _contractTitle,\r\n        string _contractContent,\r\n        uint _contractPrice\r\n    );\r\n\r\n    function contractLog(string memory _contractor1, string memory _contractor2, string memory _contractTitle, string memory _contractContent, uint _contractPrice) public returns (bool) {\r\n\r\n        emit StringLog(msg.sender, _contractor1, _contractor2, _contractTitle, _contractContent, _contractPrice);\r\n\r\n        return true;\r\n    }\r\n}",
  "sourcePath": "E:\\NodeJS\\blockchain\\contracts\\priceContract.sol",
  "compiler": {
    "name": "solc",
    "version": "0.8.17+commit.8df45f5f.Emscripten.clang"
  },
  "schemaVersion": "3.4.11",
  "updatedAt": "2022-12-21T00:07:07.568Z",
  "networkType": "ethereum",
  "devdoc": {
    "kind": "dev",
    "methods": {},
    "version": 1
  },
  "userdoc": {
    "kind": "user",
    "methods": {},
    "version": 1
  }
}