{
	"data": {
		"bytecode": {
			"linkReferences": {},
			"object": "608060405234801561001057600080fd5b50610453806100206000396000f3fe608060405234801561001057600080fd5b506004361061002b5760003560e01c806331fa05c214610030575b600080fd5b61004a6004803603810190610045919061023a565b610060565b60405161005791906102e0565b60405180910390f35b60007f8195cb6f2f6433b8159db80c461c3291b293a0cab2059db3ec796947ae3f36813385858560405161009794939291906103ca565b60405180910390a1600190509392505050565b6000604051905090565b600080fd5b600080fd5b600080fd5b600080fd5b6000601f19601f8301169050919050565b7f4e487b7100000000000000000000000000000000000000000000000000000000600052604160045260246000fd5b610111826100c8565b810181811067ffffffffffffffff821117156101305761012f6100d9565b5b80604052505050565b60006101436100aa565b905061014f8282610108565b919050565b600067ffffffffffffffff82111561016f5761016e6100d9565b5b610178826100c8565b9050602081019050919050565b82818337600083830152505050565b60006101a76101a284610154565b610139565b9050828152602081018484840111156101c3576101c26100c3565b5b6101ce848285610185565b509392505050565b600082601f8301126101eb576101ea6100be565b5b81356101fb848260208601610194565b91505092915050565b6000819050919050565b61021781610204565b811461022257600080fd5b50565b6000813590506102348161020e565b92915050565b600080600060608486031215610253576102526100b4565b5b600084013567ffffffffffffffff811115610271576102706100b9565b5b61027d868287016101d6565b935050602084013567ffffffffffffffff81111561029e5761029d6100b9565b5b6102aa868287016101d6565b92505060406102bb86828701610225565b9150509250925092565b60008115159050919050565b6102da816102c5565b82525050565b60006020820190506102f560008301846102d1565b92915050565b600073ffffffffffffffffffffffffffffffffffffffff82169050919050565b6000610326826102fb565b9050919050565b6103368161031b565b82525050565b600081519050919050565b600082825260208201905092915050565b60005b8381101561037657808201518184015260208101905061035b565b60008484015250505050565b600061038d8261033c565b6103978185610347565b93506103a7818560208601610358565b6103b0816100c8565b840191505092915050565b6103c481610204565b82525050565b60006080820190506103df600083018761032d565b81810360208301526103f18186610382565b905081810360408301526104058185610382565b905061041460608301846103bb565b9594505050505056fea264697066735822122005459d1d66ed660589dbe993e99035b5b3ae09050d73f3bd1cf2b359360146d964736f6c63430008110033",
			"opcodes": "PUSH1 0x80 PUSH1 0x40 MSTORE CALLVALUE DUP1 ISZERO PUSH2 0x10 JUMPI PUSH1 0x0 DUP1 REVERT JUMPDEST POP PUSH2 0x453 DUP1 PUSH2 0x20 PUSH1 0x0 CODECOPY PUSH1 0x0 RETURN INVALID PUSH1 0x80 PUSH1 0x40 MSTORE CALLVALUE DUP1 ISZERO PUSH2 0x10 JUMPI PUSH1 0x0 DUP1 REVERT JUMPDEST POP PUSH1 0x4 CALLDATASIZE LT PUSH2 0x2B JUMPI PUSH1 0x0 CALLDATALOAD PUSH1 0xE0 SHR DUP1 PUSH4 0x31FA05C2 EQ PUSH2 0x30 JUMPI JUMPDEST PUSH1 0x0 DUP1 REVERT JUMPDEST PUSH2 0x4A PUSH1 0x4 DUP1 CALLDATASIZE SUB DUP2 ADD SWAP1 PUSH2 0x45 SWAP2 SWAP1 PUSH2 0x23A JUMP JUMPDEST PUSH2 0x60 JUMP JUMPDEST PUSH1 0x40 MLOAD PUSH2 0x57 SWAP2 SWAP1 PUSH2 0x2E0 JUMP JUMPDEST PUSH1 0x40 MLOAD DUP1 SWAP2 SUB SWAP1 RETURN JUMPDEST PUSH1 0x0 PUSH32 0x8195CB6F2F6433B8159DB80C461C3291B293A0CAB2059DB3EC796947AE3F3681 CALLER DUP6 DUP6 DUP6 PUSH1 0x40 MLOAD PUSH2 0x97 SWAP5 SWAP4 SWAP3 SWAP2 SWAP1 PUSH2 0x3CA JUMP JUMPDEST PUSH1 0x40 MLOAD DUP1 SWAP2 SUB SWAP1 LOG1 PUSH1 0x1 SWAP1 POP SWAP4 SWAP3 POP POP POP JUMP JUMPDEST PUSH1 0x0 PUSH1 0x40 MLOAD SWAP1 POP SWAP1 JUMP JUMPDEST PUSH1 0x0 DUP1 REVERT JUMPDEST PUSH1 0x0 DUP1 REVERT JUMPDEST PUSH1 0x0 DUP1 REVERT JUMPDEST PUSH1 0x0 DUP1 REVERT JUMPDEST PUSH1 0x0 PUSH1 0x1F NOT PUSH1 0x1F DUP4 ADD AND SWAP1 POP SWAP2 SWAP1 POP JUMP JUMPDEST PUSH32 0x4E487B7100000000000000000000000000000000000000000000000000000000 PUSH1 0x0 MSTORE PUSH1 0x41 PUSH1 0x4 MSTORE PUSH1 0x24 PUSH1 0x0 REVERT JUMPDEST PUSH2 0x111 DUP3 PUSH2 0xC8 JUMP JUMPDEST DUP2 ADD DUP2 DUP2 LT PUSH8 0xFFFFFFFFFFFFFFFF DUP3 GT OR ISZERO PUSH2 0x130 JUMPI PUSH2 0x12F PUSH2 0xD9 JUMP JUMPDEST JUMPDEST DUP1 PUSH1 0x40 MSTORE POP POP POP JUMP JUMPDEST PUSH1 0x0 PUSH2 0x143 PUSH2 0xAA JUMP JUMPDEST SWAP1 POP PUSH2 0x14F DUP3 DUP3 PUSH2 0x108 JUMP JUMPDEST SWAP2 SWAP1 POP JUMP JUMPDEST PUSH1 0x0 PUSH8 0xFFFFFFFFFFFFFFFF DUP3 GT ISZERO PUSH2 0x16F JUMPI PUSH2 0x16E PUSH2 0xD9 JUMP JUMPDEST JUMPDEST PUSH2 0x178 DUP3 PUSH2 0xC8 JUMP JUMPDEST SWAP1 POP PUSH1 0x20 DUP2 ADD SWAP1 POP SWAP2 SWAP1 POP JUMP JUMPDEST DUP3 DUP2 DUP4 CALLDATACOPY PUSH1 0x0 DUP4 DUP4 ADD MSTORE POP POP POP JUMP JUMPDEST PUSH1 0x0 PUSH2 0x1A7 PUSH2 0x1A2 DUP5 PUSH2 0x154 JUMP JUMPDEST PUSH2 0x139 JUMP JUMPDEST SWAP1 POP DUP3 DUP2 MSTORE PUSH1 0x20 DUP2 ADD DUP5 DUP5 DUP5 ADD GT ISZERO PUSH2 0x1C3 JUMPI PUSH2 0x1C2 PUSH2 0xC3 JUMP JUMPDEST JUMPDEST PUSH2 0x1CE DUP5 DUP3 DUP6 PUSH2 0x185 JUMP JUMPDEST POP SWAP4 SWAP3 POP POP POP JUMP JUMPDEST PUSH1 0x0 DUP3 PUSH1 0x1F DUP4 ADD SLT PUSH2 0x1EB JUMPI PUSH2 0x1EA PUSH2 0xBE JUMP JUMPDEST JUMPDEST DUP2 CALLDATALOAD PUSH2 0x1FB DUP5 DUP3 PUSH1 0x20 DUP7 ADD PUSH2 0x194 JUMP JUMPDEST SWAP2 POP POP SWAP3 SWAP2 POP POP JUMP JUMPDEST PUSH1 0x0 DUP2 SWAP1 POP SWAP2 SWAP1 POP JUMP JUMPDEST PUSH2 0x217 DUP2 PUSH2 0x204 JUMP JUMPDEST DUP2 EQ PUSH2 0x222 JUMPI PUSH1 0x0 DUP1 REVERT JUMPDEST POP JUMP JUMPDEST PUSH1 0x0 DUP2 CALLDATALOAD SWAP1 POP PUSH2 0x234 DUP2 PUSH2 0x20E JUMP JUMPDEST SWAP3 SWAP2 POP POP JUMP JUMPDEST PUSH1 0x0 DUP1 PUSH1 0x0 PUSH1 0x60 DUP5 DUP7 SUB SLT ISZERO PUSH2 0x253 JUMPI PUSH2 0x252 PUSH2 0xB4 JUMP JUMPDEST JUMPDEST PUSH1 0x0 DUP5 ADD CALLDATALOAD PUSH8 0xFFFFFFFFFFFFFFFF DUP2 GT ISZERO PUSH2 0x271 JUMPI PUSH2 0x270 PUSH2 0xB9 JUMP JUMPDEST JUMPDEST PUSH2 0x27D DUP7 DUP3 DUP8 ADD PUSH2 0x1D6 JUMP JUMPDEST SWAP4 POP POP PUSH1 0x20 DUP5 ADD CALLDATALOAD PUSH8 0xFFFFFFFFFFFFFFFF DUP2 GT ISZERO PUSH2 0x29E JUMPI PUSH2 0x29D PUSH2 0xB9 JUMP JUMPDEST JUMPDEST PUSH2 0x2AA DUP7 DUP3 DUP8 ADD PUSH2 0x1D6 JUMP JUMPDEST SWAP3 POP POP PUSH1 0x40 PUSH2 0x2BB DUP7 DUP3 DUP8 ADD PUSH2 0x225 JUMP JUMPDEST SWAP2 POP POP SWAP3 POP SWAP3 POP SWAP3 JUMP JUMPDEST PUSH1 0x0 DUP2 ISZERO ISZERO SWAP1 POP SWAP2 SWAP1 POP JUMP JUMPDEST PUSH2 0x2DA DUP2 PUSH2 0x2C5 JUMP JUMPDEST DUP3 MSTORE POP POP JUMP JUMPDEST PUSH1 0x0 PUSH1 0x20 DUP3 ADD SWAP1 POP PUSH2 0x2F5 PUSH1 0x0 DUP4 ADD DUP5 PUSH2 0x2D1 JUMP JUMPDEST SWAP3 SWAP2 POP POP JUMP JUMPDEST PUSH1 0x0 PUSH20 0xFFFFFFFFFFFFFFFFFFFFFFFFFFFFFFFFFFFFFFFF DUP3 AND SWAP1 POP SWAP2 SWAP1 POP JUMP JUMPDEST PUSH1 0x0 PUSH2 0x326 DUP3 PUSH2 0x2FB JUMP JUMPDEST SWAP1 POP SWAP2 SWAP1 POP JUMP JUMPDEST PUSH2 0x336 DUP2 PUSH2 0x31B JUMP JUMPDEST DUP3 MSTORE POP POP JUMP JUMPDEST PUSH1 0x0 DUP2 MLOAD SWAP1 POP SWAP2 SWAP1 POP JUMP JUMPDEST PUSH1 0x0 DUP3 DUP3 MSTORE PUSH1 0x20 DUP3 ADD SWAP1 POP SWAP3 SWAP2 POP POP JUMP JUMPDEST PUSH1 0x0 JUMPDEST DUP4 DUP2 LT ISZERO PUSH2 0x376 JUMPI DUP1 DUP3 ADD MLOAD DUP2 DUP5 ADD MSTORE PUSH1 0x20 DUP2 ADD SWAP1 POP PUSH2 0x35B JUMP JUMPDEST PUSH1 0x0 DUP5 DUP5 ADD MSTORE POP POP POP POP JUMP JUMPDEST PUSH1 0x0 PUSH2 0x38D DUP3 PUSH2 0x33C JUMP JUMPDEST PUSH2 0x397 DUP2 DUP6 PUSH2 0x347 JUMP JUMPDEST SWAP4 POP PUSH2 0x3A7 DUP2 DUP6 PUSH1 0x20 DUP7 ADD PUSH2 0x358 JUMP JUMPDEST PUSH2 0x3B0 DUP2 PUSH2 0xC8 JUMP JUMPDEST DUP5 ADD SWAP2 POP POP SWAP3 SWAP2 POP POP JUMP JUMPDEST PUSH2 0x3C4 DUP2 PUSH2 0x204 JUMP JUMPDEST DUP3 MSTORE POP POP JUMP JUMPDEST PUSH1 0x0 PUSH1 0x80 DUP3 ADD SWAP1 POP PUSH2 0x3DF PUSH1 0x0 DUP4 ADD DUP8 PUSH2 0x32D JUMP JUMPDEST DUP2 DUP2 SUB PUSH1 0x20 DUP4 ADD MSTORE PUSH2 0x3F1 DUP2 DUP7 PUSH2 0x382 JUMP JUMPDEST SWAP1 POP DUP2 DUP2 SUB PUSH1 0x40 DUP4 ADD MSTORE PUSH2 0x405 DUP2 DUP6 PUSH2 0x382 JUMP JUMPDEST SWAP1 POP PUSH2 0x414 PUSH1 0x60 DUP4 ADD DUP5 PUSH2 0x3BB JUMP JUMPDEST SWAP6 SWAP5 POP POP POP POP POP JUMP INVALID LOG2 PUSH5 0x6970667358 0x22 SLT KECCAK256 SDIV GASLIMIT SWAP14 SAR PUSH7 0xED660589DBE993 0xE9 SWAP1 CALLDATALOAD 0xB5 0xB3 0xAE MULMOD SDIV 0xD PUSH20 0xF3BD1CF2B359360146D964736F6C634300081100 CALLER "
		},
		"gasEstimates": {
			"creation": {
				"codeDepositCost": "221400",
				"executionCost": "263",
				"totalCost": "221663"
			},
			"external": {
				"contractLog(string,string,uint256)": "infinite"
			}
		},
		"methodIdentifiers": {
			"contractLog(string,string,uint256)": "31fa05c2"
		}
	},
	"abi": [
		{
			"anonymous": false,
			"inputs": [
				{
					"indexed": false,
					"internalType": "address",
					"name": "_from",
					"type": "address"
				},
				{
					"indexed": false,
					"internalType": "string",
					"name": "_str1",
					"type": "string"
				},
				{
					"indexed": false,
					"internalType": "string",
					"name": "_str2",
					"type": "string"
				},
				{
					"indexed": false,
					"internalType": "uint256",
					"name": "_int1",
					"type": "uint256"
				}
			],
			"name": "StringLog",
			"type": "event"
		},
		{
			"inputs": [
				{
					"internalType": "string",
					"name": "_str1",
					"type": "string"
				},
				{
					"internalType": "string",
					"name": "_str2",
					"type": "string"
				},
				{
					"internalType": "uint256",
					"name": "_int1",
					"type": "uint256"
				}
			],
			"name": "contractLog",
			"outputs": [
				{
					"internalType": "bool",
					"name": "",
					"type": "bool"
				}
			],
			"stateMutability": "nonpayable",
			"type": "function"
		}
	]
}